{
  "_format": "hh-sol-artifact-1",
  "contractName": "WETHGateway",
  "sourceName": "contracts/protocol/WETHGateway.sol",
  "abi": [
    {
      "inputs": [
        {
          "internalType": "contract IAddressProvider",
          "name": "AddressProvider",
          "type": "address"
        },
        {
          "internalType": "contract IWETH",
          "name": "weth",
          "type": "address"
        }
      ],
      "stateMutability": "nonpayable",
      "type": "constructor"
    },
    {
      "stateMutability": "payable",
      "type": "fallback"
    },
    {
      "inputs": [
        {
          "internalType": "uint256",
          "name": "amount",
          "type": "uint256"
        },
        {
          "internalType": "address",
          "name": "nftAddress",
          "type": "address"
        },
        {
          "internalType": "uint256[]",
          "name": "nftTokenIds",
          "type": "uint256[]"
        },
        {
          "internalType": "uint256",
          "name": "genesisNFTId",
          "type": "uint256"
        },
        {
          "internalType": "bytes32",
          "name": "request",
          "type": "bytes32"
        },
        {
          "components": [
            {
              "internalType": "uint8",
              "name": "v",
              "type": "uint8"
            },
            {
              "internalType": "bytes32",
              "name": "r",
              "type": "bytes32"
            },
            {
              "internalType": "bytes32",
              "name": "s",
              "type": "bytes32"
            },
            {
              "internalType": "bytes32",
              "name": "request",
              "type": "bytes32"
            },
            {
              "internalType": "uint256",
              "name": "deadline",
              "type": "uint256"
            },
            {
              "internalType": "bytes",
              "name": "payload",
              "type": "bytes"
            }
          ],
          "internalType": "struct Trustus.TrustusPacket",
          "name": "packet",
          "type": "tuple"
        }
      ],
      "name": "borrow",
      "outputs": [],
      "stateMutability": "nonpayable",
      "type": "function"
    },
    {
      "inputs": [
        {
          "internalType": "address",
          "name": "pool",
          "type": "address"
        },
        {
          "internalType": "uint256[]",
          "name": "nftIds",
          "type": "uint256[]"
        },
        {
          "internalType": "uint256",
          "name": "maximumPrice",
          "type": "uint256"
        }
      ],
      "name": "buy",
      "outputs": [],
      "stateMutability": "payable",
      "type": "function"
    },
    {
      "inputs": [
        {
          "internalType": "address",
          "name": "gauge",
          "type": "address"
        }
      ],
      "name": "depositBribe",
      "outputs": [],
      "stateMutability": "payable",
      "type": "function"
    },
    {
      "inputs": [
        {
          "internalType": "address",
          "name": "lendingPool",
          "type": "address"
        }
      ],
      "name": "depositLendingPool",
      "outputs": [],
      "stateMutability": "payable",
      "type": "function"
    },
    {
      "inputs": [
        {
          "internalType": "address",
          "name": "pool",
          "type": "address"
        },
        {
          "internalType": "enum DataTypes.LPType",
          "name": "lpType",
          "type": "uint8"
        },
        {
          "internalType": "uint256[]",
          "name": "nftIds",
          "type": "uint256[]"
        },
        {
          "internalType": "uint256",
          "name": "initialPrice",
          "type": "uint256"
        },
        {
          "internalType": "address",
          "name": "curve",
          "type": "address"
        },
        {
          "internalType": "uint256",
          "name": "delta",
          "type": "uint256"
        },
        {
          "internalType": "uint256",
          "name": "fee",
          "type": "uint256"
        }
      ],
      "name": "depositTradingPool",
      "outputs": [],
      "stateMutability": "payable",
      "type": "function"
    },
    {
      "inputs": [
        {
          "internalType": "address",
          "name": "",
          "type": "address"
        },
        {
          "internalType": "address",
          "name": "",
          "type": "address"
        },
        {
          "internalType": "uint256",
          "name": "",
          "type": "uint256"
        },
        {
          "internalType": "bytes",
          "name": "",
          "type": "bytes"
        }
      ],
      "name": "onERC721Received",
      "outputs": [
        {
          "internalType": "bytes4",
          "name": "",
          "type": "bytes4"
        }
      ],
      "stateMutability": "nonpayable",
      "type": "function"
    },
    {
      "inputs": [
        {
          "internalType": "uint256",
          "name": "loanId",
          "type": "uint256"
        }
      ],
      "name": "repay",
      "outputs": [],
      "stateMutability": "payable",
      "type": "function"
    },
    {
      "inputs": [
        {
          "internalType": "address",
          "name": "pool",
          "type": "address"
        },
        {
          "internalType": "uint256[]",
          "name": "nftIds",
          "type": "uint256[]"
        },
        {
          "internalType": "uint256[]",
          "name": "liquidityPairs",
          "type": "uint256[]"
        },
        {
          "internalType": "uint256",
          "name": "minimumPrice",
          "type": "uint256"
        }
      ],
      "name": "sell",
      "outputs": [],
      "stateMutability": "nonpayable",
      "type": "function"
    },
    {
      "inputs": [
        {
          "internalType": "contract ITradingPool",
          "name": "buyPool",
          "type": "address"
        },
        {
          "internalType": "contract ITradingPool",
          "name": "sellPool",
          "type": "address"
        },
        {
          "internalType": "uint256[]",
          "name": "buyNftIds",
          "type": "uint256[]"
        },
        {
          "internalType": "uint256",
          "name": "maximumBuyPrice",
          "type": "uint256"
        },
        {
          "internalType": "uint256[]",
          "name": "sellNftIds",
          "type": "uint256[]"
        },
        {
          "internalType": "uint256[]",
          "name": "sellLps",
          "type": "uint256[]"
        },
        {
          "internalType": "uint256",
          "name": "minimumSellPrice",
          "type": "uint256"
        }
      ],
      "name": "swap",
      "outputs": [],
      "stateMutability": "payable",
      "type": "function"
    },
    {
      "inputs": [
        {
          "internalType": "address",
          "name": "pool",
          "type": "address"
        },
        {
          "internalType": "uint256[]",
          "name": "lpIds",
          "type": "uint256[]"
        }
      ],
      "name": "withdrawBatchTradingPool",
      "outputs": [],
      "stateMutability": "nonpayable",
      "type": "function"
    },
    {
      "inputs": [
        {
          "internalType": "address",
          "name": "lendingPool",
          "type": "address"
        },
        {
          "internalType": "uint256",
          "name": "amount",
          "type": "uint256"
        }
      ],
      "name": "withdrawLendingPool",
      "outputs": [],
      "stateMutability": "nonpayable",
      "type": "function"
    },
    {
      "inputs": [
        {
          "internalType": "address",
          "name": "pool",
          "type": "address"
        },
        {
          "internalType": "uint256",
          "name": "lpId",
          "type": "uint256"
        }
      ],
      "name": "withdrawTradingPool",
      "outputs": [],
      "stateMutability": "nonpayable",
      "type": "function"
    },
    {
      "stateMutability": "payable",
      "type": "receive"
    }
  ],
  "bytecode": "0x60c06040523480156200001157600080fd5b506040516200405f3803806200405f83398101604081905262000034916200006a565b60016000556001600160a01b039182166080521660a052620000a9565b6001600160a01b03811681146200006757600080fd5b50565b600080604083850312156200007e57600080fd5b82516200008b8162000051565b60208401519092506200009e8162000051565b809150509250929050565b60805160a051613e87620001d86000396000818160bb0152818161049d0152818161051b015281816105b2015281816106de01528181610a0d01528181610b3801528181610cad01528181610f4a0152818161118d015281816111fe0152818161127201528181611397015281816116cc015281816117f7015281816118d90152818161196d01528181611ac601528181611ec601528181611fef01528181612120015281816121b4015281816122b20152818161248201528181612564015281816126b00152818161274401528181612b1301528181612c4401528181612cb801528181612e8f01528181612f0c015281816131bb015261324f0152600081816102d301528181610dd101528181610ec6015281816123fe01528181612ce70152612dda0152613e876000f3fe6080604052600436106100ab5760003560e01c80636a508606116100645780636a508606146102485780636bc365f41461025b578063b31f0d621461027b578063b967f1101461028e578063bd3cd549146102a1578063cc36e337146102b45761012f565b806301d0e3da1461016d5780630f19bee01461018d578063150b7a02146101ad5780633168cf4f146101f5578063371fd8e61461021557806349591b51146102285761012f565b3661012f57336001600160a01b037f0000000000000000000000000000000000000000000000000000000000000000161461012d5760405162461bcd60e51b815260206004820152601b60248201527f455448473a524543454956453a494e56414c49445f53454e444552000000000060448201526064015b60405180910390fd5b005b60405162461bcd60e51b815260206004820152601360248201527211551211ce918e9253959053125117d0d05313606a1b6044820152606401610124565b34801561017957600080fd5b5061012d6101883660046133fd565b6102c7565b34801561019957600080fd5b5061012d6101a836600461349c565b6106d4565b3480156101b957600080fd5b506101d86101c8366004613536565b630a85bd0160e11b949350505050565b6040516001600160e01b0319909116815260200160405180910390f35b34801561020157600080fd5b5061012d61021036600461349c565b610b2e565b61012d6102233660046135f9565b610dc5565b34801561023457600080fd5b5061012d610243366004613612565b61138d565b61012d61025636600461369c565b6117ed565b34801561026757600080fd5b5061012d6102763660046136c0565b611a6b565b61012d610289366004613714565b611fe5565b61012d61029c36600461376f565b6123f2565b61012d6102af36600461369c565b612c3a565b61012d6102c2366004613850565b612f02565b6102cf613344565b60007f00000000000000000000000000000000000000000000000000000000000000006001600160a01b03166304d21cee6040518163ffffffff1660e01b8152600401602060405180830381865afa15801561032f573d6000803e3d6000fd5b505050506040513d601f19601f8201168201806040525081019061035391906138f6565b905060005b85811015610476576001600160a01b0388166342842e0e33308a8a8681811061038357610383613913565b905060200201356040518463ffffffff1660e01b81526004016103a893929190613929565b600060405180830381600087803b1580156103c257600080fd5b505af11580156103d6573d6000803e3d6000fd5b50505050876001600160a01b031663095ea7b3838989858181106103fc576103fc613913565b6040516001600160e01b031960e087901b1681526001600160a01b0390941660048501526020029190910135602483015250604401600060405180830381600087803b15801561044b57600080fd5b505af115801561045f573d6000803e3d6000fd5b50505050808061046e90613963565b915050610358565b50604051636c6911b760e01b81526001600160a01b03821690636c6911b7906104d39033907f0000000000000000000000000000000000000000000000000000000000000000908d908d908d908d908d908d908d906004016139d7565b600060405180830381600087803b1580156104ed57600080fd5b505af1158015610501573d6000803e3d6000fd5b50506040516370a0823160e01b81523060048201528a92507f00000000000000000000000000000000000000000000000000000000000000006001600160a01b031691506370a0823190602401602060405180830381865afa15801561056b573d6000803e3d6000fd5b505050506040513d601f19601f8201168201806040525081019061058f9190613ad2565b1461059c5761059c613aeb565b604051632e1a7d4d60e01b8152600481018990527f00000000000000000000000000000000000000000000000000000000000000006001600160a01b031690632e1a7d4d90602401600060405180830381600087803b1580156105fe57600080fd5b505af1158015610612573d6000803e3d6000fd5b50505050600061061f3390565b6001600160a01b03168960405160006040518083038185875af1925050503d8060008114610669576040519150601f19603f3d011682016040523d82523d6000602084013e61066e565b606091505b50509050806106bf5760405162461bcd60e51b815260206004820152601a60248201527f455448473a423a4554485f5452414e534645525f4641494c45440000000000006044820152606401610124565b50506106cb6001600055565b50505050505050565b6106dc613344565b7f00000000000000000000000000000000000000000000000000000000000000006001600160a01b0316826001600160a01b03166321df0da76040518163ffffffff1660e01b8152600401602060405180830381865afa158015610744573d6000803e3d6000fd5b505050506040513d601f19601f8201168201806040525081019061076891906138f6565b6001600160a01b0316146107be5760405162461bcd60e51b815260206004820152601c60248201527f455448473a5754503a554e4445524c59494e475f4e4f545f57455448000000006044820152606401610124565b604051632142170760e11b81526001600160a01b038316906342842e0e906107ee90339030908690600401613929565b600060405180830381600087803b15801561080857600080fd5b505af115801561081c573d6000803e3d6000fd5b50506040516319ba7e5360e31b815260048101849052600092506001600160a01b038516915063cdd3f29890602401600060405180830381865afa158015610868573d6000803e3d6000fd5b505050506040513d6000823e601f3d908101601f191682016040526108909190810190613b8b565b604051639c8f9f2360e01b8152600481018490529091506001600160a01b03841690639c8f9f2390602401600060405180830381600087803b1580156108d557600080fd5b505af11580156108e9573d6000803e3d6000fd5b5050505060005b8160200151518110156109f057836001600160a01b03166388a6360e6040518163ffffffff1660e01b8152600401602060405180830381865afa15801561093b573d6000803e3d6000fd5b505050506040513d601f19601f8201168201806040525081019061095f91906138f6565b6001600160a01b03166342842e0e30338560200151858151811061098557610985613913565b60200260200101516040518463ffffffff1660e01b81526004016109ab93929190613929565b600060405180830381600087803b1580156109c557600080fd5b505af11580156109d9573d6000803e3d6000fd5b5050505080806109e890613963565b9150506108f0565b506040818101519051632e1a7d4d60e01b815260048101919091527f00000000000000000000000000000000000000000000000000000000000000006001600160a01b031690632e1a7d4d90602401600060405180830381600087803b158015610a5957600080fd5b505af1158015610a6d573d6000803e3d6000fd5b505050506000610a7a3390565b6001600160a01b0316826040015160405160006040518083038185875af1925050503d8060008114610ac8576040519150601f19603f3d011682016040523d82523d6000602084013e610acd565b606091505b5050905080610b1e5760405162461bcd60e51b815260206004820152601c60248201527f455448473a5754503a4554485f5452414e534645525f4641494c4544000000006044820152606401610124565b5050610b2a6001600055565b5050565b610b36613344565b7f00000000000000000000000000000000000000000000000000000000000000006001600160a01b0316826001600160a01b03166338d52e0f6040518163ffffffff1660e01b8152600401602060405180830381865afa158015610b9e573d6000803e3d6000fd5b505050506040513d601f19601f82011682018060405250810190610bc291906138f6565b6001600160a01b031614610c185760405162461bcd60e51b815260206004820152601c60248201527f455448473a574c503a554e4445524c59494e475f4e4f545f57455448000000006044820152606401610124565b60408051632d182be560e21b81526004810183905230602482015233604482015290516001600160a01b0384169163b460af9491606480830192602092919082900301816000875af1158015610c72573d6000803e3d6000fd5b505050506040513d601f19601f82011682018060405250810190610c969190613ad2565b50604051632e1a7d4d60e01b8152600481018290527f00000000000000000000000000000000000000000000000000000000000000006001600160a01b031690632e1a7d4d90602401600060405180830381600087803b158015610cf957600080fd5b505af1158015610d0d573d6000803e3d6000fd5b505050506000610d1a3390565b6001600160a01b03168260405160006040518083038185875af1925050503d8060008114610d64576040519150601f19603f3d011682016040523d82523d6000602084013e610d69565b606091505b5050905080610dba5760405162461bcd60e51b815260206004820152601c60248201527f455448473a574c503a4554485f5452414e534645525f4641494c4544000000006044820152606401610124565b50610b2a6001600055565b610dcd613344565b60007f00000000000000000000000000000000000000000000000000000000000000006001600160a01b031663536223646040518163ffffffff1660e01b8152600401602060405180830381865afa158015610e2d573d6000803e3d6000fd5b505050506040513d601f19601f82011682018060405250810190610e5191906138f6565b60405163ccff44f160e01b8152600481018490529091506000906001600160a01b0383169063ccff44f190602401602060405180830381865afa158015610e9c573d6000803e3d6000fd5b505050506040513d601f19601f82011682018060405250810190610ec091906138f6565b905060007f00000000000000000000000000000000000000000000000000000000000000006001600160a01b03166304d21cee6040518163ffffffff1660e01b8152600401602060405180830381865afa158015610f22573d6000803e3d6000fd5b505050506040513d601f19601f82011682018060405250810190610f4691906138f6565b90507f00000000000000000000000000000000000000000000000000000000000000006001600160a01b0316826001600160a01b03166338d52e0f6040518163ffffffff1660e01b8152600401602060405180830381865afa158015610fb0573d6000803e3d6000fd5b505050506040513d601f19601f82011682018060405250810190610fd491906138f6565b6001600160a01b03161461102a5760405162461bcd60e51b815260206004820152601a60248201527f455448473a523a554e4445524c59494e475f4e4f545f574554480000000000006044820152606401610124565b6000600460405163159f9d7160e21b8152600481018790526001600160a01b0386169063567e75c490602401602060405180830381865afa158015611073573d6000803e3d6000fd5b505050506040513d601f19601f820116820180604052508101906110979190613c5a565b60058111156110a8576110a8613c44565b036111fc5760405163271c1aed60e21b8152600481018690526001600160a01b03851690639c706bb490602401602060405180830381865afa1580156110f2573d6000803e3d6000fd5b505050506040513d601f19601f820116820180604052508101906111169190613ad2565b90503481106111675760405162461bcd60e51b815260206004820152601860248201527f455448473a523a4e4f5f41554354494f4e4545525f46454500000000000000006044820152606401610124565b60405163095ea7b360e01b81526001600160a01b038381166004830152602482018390527f0000000000000000000000000000000000000000000000000000000000000000169063095ea7b3906044016020604051808303816000875af11580156111d6573d6000803e3d6000fd5b505050506040513d601f19601f820116820180604052508101906111fa9190613c7b565b505b7f00000000000000000000000000000000000000000000000000000000000000006001600160a01b031663d0e30db0346040518263ffffffff1660e01b81526004016000604051808303818588803b15801561125757600080fd5b505af115801561126b573d6000803e3d6000fd5b50505050507f00000000000000000000000000000000000000000000000000000000000000006001600160a01b031663095ea7b38483346112ac9190613c9d565b6040516001600160e01b031960e085901b1681526001600160a01b03909216600483015260248201526044016020604051808303816000875af11580156112f7573d6000803e3d6000fd5b505050506040513d601f19601f8201168201806040525081019061131b9190613c7b565b5060405163d8aed14560e01b8152600481018690523460248201526001600160a01b0383169063d8aed14590604401600060405180830381600087803b15801561136457600080fd5b505af1158015611378573d6000803e3d6000fd5b505050505050505061138a6001600055565b50565b611395613344565b7f00000000000000000000000000000000000000000000000000000000000000006001600160a01b0316866001600160a01b03166321df0da76040518163ffffffff1660e01b8152600401602060405180830381865afa1580156113fd573d6000803e3d6000fd5b505050506040513d601f19601f8201168201806040525081019061142191906138f6565b6001600160a01b0316146114775760405162461bcd60e51b815260206004820152601a60248201527f455448473a533a554e4445524c59494e475f4e4f545f574554480000000000006044820152606401610124565b60005b8481101561157057866001600160a01b03166388a6360e6040518163ffffffff1660e01b8152600401602060405180830381865afa1580156114c0573d6000803e3d6000fd5b505050506040513d601f19601f820116820180604052508101906114e491906138f6565b6001600160a01b03166342842e0e333089898681811061150657611506613913565b905060200201356040518463ffffffff1660e01b815260040161152b93929190613929565b600060405180830381600087803b15801561154557600080fd5b505af1158015611559573d6000803e3d6000fd5b50505050808061156890613963565b91505061147a565b50856001600160a01b03166388a6360e6040518163ffffffff1660e01b8152600401602060405180830381865afa1580156115af573d6000803e3d6000fd5b505050506040513d601f19601f820116820180604052508101906115d391906138f6565b60405163a22cb46560e01b81526001600160a01b03888116600483015260016024830152919091169063a22cb46590604401600060405180830381600087803b15801561161f57600080fd5b505af1158015611633573d6000803e3d6000fd5b50506040516349591b5160e01b8152600092506001600160a01b03891691506349591b51906116709030908a908a908a908a908a90600401613cb6565b6020604051808303816000875af115801561168f573d6000803e3d6000fd5b505050506040513d601f19601f820116820180604052508101906116b39190613ad2565b604051632e1a7d4d60e01b8152600481018290529091507f00000000000000000000000000000000000000000000000000000000000000006001600160a01b031690632e1a7d4d90602401600060405180830381600087803b15801561171857600080fd5b505af115801561172c573d6000803e3d6000fd5b5050505060006117393390565b6001600160a01b03168260405160006040518083038185875af1925050503d8060008114611783576040519150601f19603f3d011682016040523d82523d6000602084013e611788565b606091505b50509050806117d95760405162461bcd60e51b815260206004820152601a60248201527f455448473a533a4554485f5452414e534645525f4641494c45440000000000006044820152606401610124565b50506117e56001600055565b505050505050565b6117f5613344565b7f00000000000000000000000000000000000000000000000000000000000000006001600160a01b0316816001600160a01b03166338d52e0f6040518163ffffffff1660e01b8152600401602060405180830381865afa15801561185d573d6000803e3d6000fd5b505050506040513d601f19601f8201168201806040525081019061188191906138f6565b6001600160a01b0316146118d75760405162461bcd60e51b815260206004820152601c60248201527f455448473a444c503a554e4445524c59494e475f4e4f545f57455448000000006044820152606401610124565b7f00000000000000000000000000000000000000000000000000000000000000006001600160a01b031663d0e30db0346040518263ffffffff1660e01b81526004016000604051808303818588803b15801561193257600080fd5b505af1158015611946573d6000803e3d6000fd5b505060405163095ea7b360e01b81526001600160a01b0385811660048301523460248301527f000000000000000000000000000000000000000000000000000000000000000016935063095ea7b3925060440190506020604051808303816000875af11580156119ba573d6000803e3d6000fd5b505050506040513d601f19601f820116820180604052508101906119de9190613c7b565b506001600160a01b038116636e553f6534336040516001600160e01b031960e085901b16815260048101929092526001600160a01b031660248201526044016020604051808303816000875af1158015611a3c573d6000803e3d6000fd5b505050506040513d601f19601f82011682018060405250810190611a609190613ad2565b5061138a6001600055565b611a73613344565b600080826001600160401b03811115611a8e57611a8e6134c8565b604051908082528060200260200182016040528015611ac157816020015b6060815260200190600190039081611aac5790505b5090507f00000000000000000000000000000000000000000000000000000000000000006001600160a01b0316856001600160a01b03166321df0da76040518163ffffffff1660e01b8152600401602060405180830381865afa158015611b2c573d6000803e3d6000fd5b505050506040513d601f19601f82011682018060405250810190611b5091906138f6565b6001600160a01b031614611ba65760405162461bcd60e51b815260206004820152601d60248201527f455448473a574254503a554e4445524c59494e475f4e4f545f574554480000006044820152606401610124565b60005b83811015611d02576001600160a01b0386166342842e0e3330888886818110611bd457611bd4613913565b905060200201356040518463ffffffff1660e01b8152600401611bf993929190613929565b600060405180830381600087803b158015611c1357600080fd5b505af1158015611c27573d6000803e3d6000fd5b505050506000866001600160a01b031663cdd3f298878785818110611c4e57611c4e613913565b905060200201356040518263ffffffff1660e01b8152600401611c7391815260200190565b600060405180830381865afa158015611c90573d6000803e3d6000fd5b505050506040513d6000823e601f3d908101601f19168201604052611cb89190810190613b8b565b9050806040015184611cca9190613d02565b93508060200151838381518110611ce357611ce3613913565b6020026020010181905250508080611cfa90613963565b915050611ba9565b506040516336903d8d60e11b81526001600160a01b03861690636d207b1a90611d319087908790600401613d15565b600060405180830381600087803b158015611d4b57600080fd5b505af1158015611d5f573d6000803e3d6000fd5b5050505060005b8151811015611eaf5760005b828281518110611d8457611d84613913565b602002602001015151811015611e9c57866001600160a01b03166388a6360e6040518163ffffffff1660e01b8152600401602060405180830381865afa158015611dd2573d6000803e3d6000fd5b505050506040513d601f19601f82011682018060405250810190611df691906138f6565b6001600160a01b03166342842e0e3033868681518110611e1857611e18613913565b60200260200101518581518110611e3157611e31613913565b60200260200101516040518463ffffffff1660e01b8152600401611e5793929190613929565b600060405180830381600087803b158015611e7157600080fd5b505af1158015611e85573d6000803e3d6000fd5b505050508080611e9490613963565b915050611d72565b5080611ea781613963565b915050611d66565b50604051632e1a7d4d60e01b8152600481018390527f00000000000000000000000000000000000000000000000000000000000000006001600160a01b031690632e1a7d4d90602401600060405180830381600087803b158015611f1257600080fd5b505af1158015611f26573d6000803e3d6000fd5b505050506000611f333390565b6001600160a01b03168360405160006040518083038185875af1925050503d8060008114611f7d576040519150601f19603f3d011682016040523d82523d6000602084013e611f82565b606091505b5050905080611fd35760405162461bcd60e51b815260206004820152601d60248201527f455448473a574254503a4554485f5452414e534645525f4641494c45440000006044820152606401610124565b505050611fe06001600055565b505050565b611fed613344565b7f00000000000000000000000000000000000000000000000000000000000000006001600160a01b0316846001600160a01b03166321df0da76040518163ffffffff1660e01b8152600401602060405180830381865afa158015612055573d6000803e3d6000fd5b505050506040513d601f19601f8201168201806040525081019061207991906138f6565b6001600160a01b0316146120cf5760405162461bcd60e51b815260206004820152601a60248201527f455448473a423a554e4445524c59494e475f4e4f545f574554480000000000006044820152606401610124565b80341461211e5760405162461bcd60e51b815260206004820152601e60248201527f455448473a423a56414c55455f4e4f545f4d4158494d554d5f505249434500006044820152606401610124565b7f00000000000000000000000000000000000000000000000000000000000000006001600160a01b031663d0e30db0346040518263ffffffff1660e01b81526004016000604051808303818588803b15801561217957600080fd5b505af115801561218d573d6000803e3d6000fd5b505060405163095ea7b360e01b81526001600160a01b0388811660048301523460248301527f000000000000000000000000000000000000000000000000000000000000000016935063095ea7b3925060440190506020604051808303816000875af1158015612201573d6000803e3d6000fd5b505050506040513d601f19601f820116820180604052508101906122259190613c7b565b5060405163598f86b160e11b81526000906001600160a01b0386169063b31f0d629061225b903390889088908890600401613d31565b6020604051808303816000875af115801561227a573d6000803e3d6000fd5b505050506040513d601f19601f8201168201806040525081019061229e9190613ad2565b9050803411156123e1576001600160a01b037f000000000000000000000000000000000000000000000000000000000000000016632e1a7d4d6122e18334613c9d565b6040518263ffffffff1660e01b81526004016122ff91815260200190565b600060405180830381600087803b15801561231957600080fd5b505af115801561232d573d6000803e3d6000fd5b50505050600061233a3390565b6001600160a01b031661234d8334613c9d565b604051600081818185875af1925050503d8060008114612389576040519150601f19603f3d011682016040523d82523d6000602084013e61238e565b606091505b50509050806123df5760405162461bcd60e51b815260206004820152601a60248201527f455448473a423a4554485f5452414e534645525f4641494c45440000000000006044820152606401610124565b505b506123ec6001600055565b50505050565b6123fa613344565b60007f00000000000000000000000000000000000000000000000000000000000000006001600160a01b031663725c9c496040518163ffffffff1660e01b8152600401602060405180830381865afa15801561245a573d6000803e3d6000fd5b505050506040513d601f19601f8201168201806040525081019061247e91906138f6565b90507f00000000000000000000000000000000000000000000000000000000000000006001600160a01b03168b6001600160a01b03166321df0da76040518163ffffffff1660e01b8152600401602060405180830381865afa1580156124e8573d6000803e3d6000fd5b505050506040513d601f19601f8201168201806040525081019061250c91906138f6565b6001600160a01b0316146125625760405162461bcd60e51b815260206004820152601e60248201527f455448473a533a4255595f554e4445524c59494e475f4e4f545f5745544800006044820152606401610124565b7f00000000000000000000000000000000000000000000000000000000000000006001600160a01b03168a6001600160a01b03166321df0da76040518163ffffffff1660e01b8152600401602060405180830381865afa1580156125ca573d6000803e3d6000fd5b505050506040513d601f19601f820116820180604052508101906125ee91906138f6565b6001600160a01b0316146126445760405162461bcd60e51b815260206004820152601f60248201527f455448473a533a53454c4c5f554e4445524c59494e475f4e4f545f57455448006044820152606401610124565b818711156127b7576126568288613c9d565b34146126ae5760405162461bcd60e51b815260206004820152602160248201527f455448473a533a56414c55455f4e4f545f50524943455f444946464552454e436044820152604560f81b6064820152608401610124565b7f00000000000000000000000000000000000000000000000000000000000000006001600160a01b031663d0e30db0346040518263ffffffff1660e01b81526004016000604051808303818588803b15801561270957600080fd5b505af115801561271d573d6000803e3d6000fd5b505060405163095ea7b360e01b81526001600160a01b0385811660048301523460248301527f000000000000000000000000000000000000000000000000000000000000000016935063095ea7b3925060440190506020604051808303816000875af1158015612791573d6000803e3d6000fd5b505050506040513d601f19601f820116820180604052508101906127b59190613c7b565b505b60005b858110156128b0578a6001600160a01b03166388a6360e6040518163ffffffff1660e01b8152600401602060405180830381865afa158015612800573d6000803e3d6000fd5b505050506040513d601f19601f8201168201806040525081019061282491906138f6565b6001600160a01b03166342842e0e33308a8a8681811061284657612846613913565b905060200201356040518463ffffffff1660e01b815260040161286b93929190613929565b600060405180830381600087803b15801561288557600080fd5b505af1158015612899573d6000803e3d6000fd5b5050505080806128a890613963565b9150506127ba565b50896001600160a01b03166388a6360e6040518163ffffffff1660e01b8152600401602060405180830381865afa1580156128ef573d6000803e3d6000fd5b505050506040513d601f19601f8201168201806040525081019061291391906138f6565b60405163a22cb46560e01b81526001600160a01b038c8116600483015260016024830152919091169063a22cb46590604401600060405180830381600087803b15801561295f57600080fd5b505af1158015612973573d6000803e3d6000fd5b5050604051630b967f1160e41b8152600092506001600160a01b038416915063b967f110906129b8908f908f908f908f908f908f908f908f908f908f90600401613d67565b6020604051808303816000875af11580156129d7573d6000803e3d6000fd5b505050506040513d601f19601f820116820180604052508101906129fb9190613ad2565b905060005b89811015612af6578c6001600160a01b03166388a6360e6040518163ffffffff1660e01b8152600401602060405180830381865afa158015612a46573d6000803e3d6000fd5b505050506040513d601f19601f82011682018060405250810190612a6a91906138f6565b6001600160a01b03166342842e0e30338e8e86818110612a8c57612a8c613913565b905060200201356040518463ffffffff1660e01b8152600401612ab193929190613929565b600060405180830381600087803b158015612acb57600080fd5b505af1158015612adf573d6000803e3d6000fd5b505050508080612aee90613963565b915050612a00565b508015612c2257604051632e1a7d4d60e01b8152600481018290527f00000000000000000000000000000000000000000000000000000000000000006001600160a01b031690632e1a7d4d90602401600060405180830381600087803b158015612b5f57600080fd5b505af1158015612b73573d6000803e3d6000fd5b505050506000612b803390565b6001600160a01b03168260405160006040518083038185875af1925050503d8060008114612bca576040519150601f19603f3d011682016040523d82523d6000602084013e612bcf565b606091505b5050905080612c205760405162461bcd60e51b815260206004820152601a60248201527f455448473a533a4554485f5452414e534645525f4641494c45440000000000006044820152606401610124565b505b5050612c2e6001600055565b50505050505050505050565b612c42613344565b7f00000000000000000000000000000000000000000000000000000000000000006001600160a01b031663d0e30db0346040518263ffffffff1660e01b81526004016000604051808303818588803b158015612c9d57600080fd5b505af1158015612cb1573d6000803e3d6000fd5b50505050507f00000000000000000000000000000000000000000000000000000000000000006001600160a01b031663095ea7b37f00000000000000000000000000000000000000000000000000000000000000006001600160a01b03166315ce66776040518163ffffffff1660e01b8152600401602060405180830381865afa158015612d43573d6000803e3d6000fd5b505050506040513d601f19601f82011682018060405250810190612d6791906138f6565b6040516001600160e01b031960e084901b1681526001600160a01b0390911660048201523460248201526044016020604051808303816000875af1158015612db3573d6000803e3d6000fd5b505050506040513d601f19601f82011682018060405250810190612dd79190613c7b565b507f00000000000000000000000000000000000000000000000000000000000000006001600160a01b03166315ce66776040518163ffffffff1660e01b8152600401602060405180830381865afa158015612e36573d6000803e3d6000fd5b505050506040513d601f19601f82011682018060405250810190612e5a91906138f6565b6001600160a01b03166394f2522f336040516001600160e01b031960e084901b1681526001600160a01b0391821660048201527f0000000000000000000000000000000000000000000000000000000000000000821660248201529084166044820152346064820152608401600060405180830381600087803b158015612ee057600080fd5b505af1158015612ef4573d6000803e3d6000fd5b5050505061138a6001600055565b612f0a613344565b7f00000000000000000000000000000000000000000000000000000000000000006001600160a01b0316886001600160a01b03166321df0da76040518163ffffffff1660e01b8152600401602060405180830381865afa158015612f72573d6000803e3d6000fd5b505050506040513d601f19601f82011682018060405250810190612f9691906138f6565b6001600160a01b031614612fec5760405162461bcd60e51b815260206004820152601c60248201527f455448473a4454503a554e4445524c59494e475f4e4f545f57455448000000006044820152606401610124565b84156131b35760005b858110156130eb57886001600160a01b03166388a6360e6040518163ffffffff1660e01b8152600401602060405180830381865afa15801561303b573d6000803e3d6000fd5b505050506040513d601f19601f8201168201806040525081019061305f91906138f6565b6001600160a01b03166342842e0e33308a8a8681811061308157613081613913565b905060200201356040518463ffffffff1660e01b81526004016130a693929190613929565b600060405180830381600087803b1580156130c057600080fd5b505af11580156130d4573d6000803e3d6000fd5b5050505080806130e390613963565b915050612ff5565b50876001600160a01b03166388a6360e6040518163ffffffff1660e01b8152600401602060405180830381865afa15801561312a573d6000803e3d6000fd5b505050506040513d601f19601f8201168201806040525081019061314e91906138f6565b60405163a22cb46560e01b81526001600160a01b038a8116600483015260016024830152919091169063a22cb46590604401600060405180830381600087803b15801561319a57600080fd5b505af11580156131ae573d6000803e3d6000fd5b505050505b34156132c2577f00000000000000000000000000000000000000000000000000000000000000006001600160a01b031663d0e30db0346040518263ffffffff1660e01b81526004016000604051808303818588803b15801561321457600080fd5b505af1158015613228573d6000803e3d6000fd5b505060405163095ea7b360e01b81526001600160a01b038c811660048301523460248301527f000000000000000000000000000000000000000000000000000000000000000016935063095ea7b3925060440190506020604051808303816000875af115801561329c573d6000803e3d6000fd5b505050506040513d601f19601f820116820180604052508101906132c09190613c7b565b505b60405163c4d6b3e560e01b81526001600160a01b0389169063c4d6b3e5906132fe9033908b908b908b9034908c908c908c908c90600401613dda565b600060405180830381600087803b15801561331857600080fd5b505af115801561332c573d6000803e3d6000fd5b5050505061333a6001600055565b5050505050505050565b6002600054036133965760405162461bcd60e51b815260206004820152601f60248201527f5265656e7472616e637947756172643a207265656e7472616e742063616c6c006044820152606401610124565b6002600055565b6001600160a01b038116811461138a57600080fd5b60008083601f8401126133c457600080fd5b5081356001600160401b038111156133db57600080fd5b6020830191508360208260051b85010111156133f657600080fd5b9250929050565b600080600080600080600060c0888a03121561341857600080fd5b87359650602088013561342a8161339d565b955060408801356001600160401b038082111561344657600080fd5b6134528b838c016133b2565b909750955060608a0135945060808a0135935060a08a013591508082111561347957600080fd5b50880160c0818b03121561348c57600080fd5b8091505092959891949750929550565b600080604083850312156134af57600080fd5b82356134ba8161339d565b946020939093013593505050565b634e487b7160e01b600052604160045260246000fd5b60405160e081016001600160401b0381118282101715613500576135006134c8565b60405290565b604051601f8201601f191681016001600160401b038111828210171561352e5761352e6134c8565b604052919050565b6000806000806080858703121561354c57600080fd5b84356135578161339d565b93506020858101356135688161339d565b93506040860135925060608601356001600160401b038082111561358b57600080fd5b818801915088601f83011261359f57600080fd5b8135818111156135b1576135b16134c8565b6135c3601f8201601f19168501613506565b915080825289848285010111156135d957600080fd5b808484018584013760008482840101525080935050505092959194509250565b60006020828403121561360b57600080fd5b5035919050565b6000806000806000806080878903121561362b57600080fd5b86356136368161339d565b955060208701356001600160401b038082111561365257600080fd5b61365e8a838b016133b2565b9097509550604089013591508082111561367757600080fd5b5061368489828a016133b2565b979a9699509497949695606090950135949350505050565b6000602082840312156136ae57600080fd5b81356136b98161339d565b9392505050565b6000806000604084860312156136d557600080fd5b83356136e08161339d565b925060208401356001600160401b038111156136fb57600080fd5b613707868287016133b2565b9497909650939450505050565b6000806000806060858703121561372a57600080fd5b84356137358161339d565b935060208501356001600160401b0381111561375057600080fd5b61375c878288016133b2565b9598909750949560400135949350505050565b60008060008060008060008060008060e08b8d03121561378e57600080fd5b8a356137998161339d565b995060208b01356137a98161339d565b985060408b01356001600160401b03808211156137c557600080fd5b6137d18e838f016133b2565b909a50985060608d0135975060808d01359150808211156137f157600080fd5b6137fd8e838f016133b2565b909750955060a08d013591508082111561381657600080fd5b506138238d828e016133b2565b9150809450508092505060c08b013590509295989b9194979a5092959850565b6005811061138a57600080fd5b60008060008060008060008060e0898b03121561386c57600080fd5b88356138778161339d565b9750602089013561388781613843565b965060408901356001600160401b038111156138a257600080fd5b6138ae8b828c016133b2565b9097509550506060890135935060808901356138c98161339d565b979a969950949793969295929450505060a08201359160c0013590565b80516138f18161339d565b919050565b60006020828403121561390857600080fd5b81516136b98161339d565b634e487b7160e01b600052603260045260246000fd5b6001600160a01b039384168152919092166020820152604081019190915260600190565b634e487b7160e01b600052601160045260246000fd5b6000600182016139755761397561394d565b5060010190565b81835260006001600160fb1b0383111561399557600080fd5b8260051b80836020870137939093016020019392505050565b81835281816020850137506000828201602090810191909152601f909101601f19169091010190565b6001600160a01b038a811682528981166020830152604082018990528716606082015261010060808201819052600090613a14838201888a61397c565b90508560a08401528460c084015282810360e0840152833560ff8116808214613a3c57600080fd5b80835250506020840135602082015260408401356040820152606084013560608201526080840135608082015260a0840135601e19853603018112613a8057600080fd5b84016020810190356001600160401b03811115613a9c57600080fd5b803603821315613aab57600080fd5b60c060a0840152613ac060c0840182846139ae565b9e9d5050505050505050505050505050565b600060208284031215613ae457600080fd5b5051919050565b634e487b7160e01b600052600160045260246000fd5b80516138f181613843565b600082601f830112613b1d57600080fd5b815160206001600160401b03821115613b3857613b386134c8565b8160051b613b47828201613506565b9283528481018201928281019087851115613b6157600080fd5b83870192505b84831015613b8057825182529183019190830190613b67565b979650505050505050565b600060208284031215613b9d57600080fd5b81516001600160401b0380821115613bb457600080fd5b9083019060e08286031215613bc857600080fd5b613bd06134de565b613bd983613b01565b8152602083015182811115613bed57600080fd5b613bf987828601613b0c565b6020830152506040830151604082015260608301516060820152613c1f608084016138e6565b608082015260a083015160a082015260c083015160c082015280935050505092915050565b634e487b7160e01b600052602160045260246000fd5b600060208284031215613c6c57600080fd5b8151600681106136b957600080fd5b600060208284031215613c8d57600080fd5b815180151581146136b957600080fd5b81810381811115613cb057613cb061394d565b92915050565b6001600160a01b0387168152608060208201819052600090613cdb908301878961397c565b8281036040840152613cee81868861397c565b915050826060830152979650505050505050565b80820180821115613cb057613cb061394d565b602081526000613d2960208301848661397c565b949350505050565b6001600160a01b0385168152606060208201819052600090613d56908301858761397c565b905082604083015295945050505050565b6001600160a01b038b811682528a16602082015260e060408201819052600090613d949083018a8c61397c565b8860608401528281036080840152613dad81888a61397c565b905082810360a0840152613dc281868861397c565b9150508260c08301529b9a5050505050505050505050565b6001600160a01b038a811682526000906101009060058c10613e0c57634e487b7160e01b600052602160045260246000fd5b8b6020850152816040850152613e258285018b8d61397c565b6060850199909952608084019790975250509290931660a083015260c082015260e0015294935050505056fea2646970667358221220701018819e48a4056f1aef35ccaa5e40b05856171c0a961dd756c889d070051d64736f6c63430008130033",
  "linkReferences": {},
  "deployedLinkReferences": {}
}